{
  "_format": "hh-sol-artifact-1",
  "contractName": "Fundraiser",
  "sourceName": "contracts/FundraiserContract.sol",
  "abi": [
    {
      "anonymous": false,
      "inputs": [
        {
          "indexed": false,
          "internalType": "uint256",
          "name": "_fundraiser",
          "type": "uint256"
        },
        {
          "indexed": false,
          "internalType": "bool",
          "name": "_activationStatus",
          "type": "bool"
        }
      ],
      "name": "ActivationStautsChanged",
      "type": "event"
    },
    {
      "anonymous": false,
      "inputs": [
        {
          "indexed": false,
          "internalType": "uint256",
          "name": "_returnedFrom",
          "type": "uint256"
        }
      ],
      "name": "AmountSuccessfullyReturnedToDonors",
      "type": "event"
    },
    {
      "anonymous": false,
      "inputs": [
        {
          "indexed": false,
          "internalType": "uint256",
          "name": "fundRaiser",
          "type": "uint256"
        },
        {
          "indexed": false,
          "internalType": "bool",
          "name": "_blacklistStatus",
          "type": "bool"
        }
      ],
      "name": "BlacklistedStatusChanged",
      "type": "event"
    },
    {
      "anonymous": false,
      "inputs": [
        {
          "indexed": false,
          "internalType": "uint256",
          "name": "_claimedFrom",
          "type": "uint256"
        },
        {
          "indexed": false,
          "internalType": "address",
          "name": "_claimedBy",
          "type": "address"
        },
        {
          "indexed": false,
          "internalType": "uint256",
          "name": "_amountCliamed",
          "type": "uint256"
        }
      ],
      "name": "ClaimSuccessful",
      "type": "event"
    },
    {
      "anonymous": false,
      "inputs": [
        {
          "indexed": false,
          "internalType": "address",
          "name": "_donatedBy",
          "type": "address"
        },
        {
          "indexed": false,
          "internalType": "uint256",
          "name": "_donatedTo",
          "type": "uint256"
        },
        {
          "indexed": false,
          "internalType": "uint256",
          "name": "_amountDonated",
          "type": "uint256"
        }
      ],
      "name": "DonationSuccessful",
      "type": "event"
    },
    {
      "anonymous": false,
      "inputs": [
        {
          "indexed": false,
          "internalType": "address",
          "name": "_raisedBy",
          "type": "address"
        },
        {
          "indexed": false,
          "internalType": "address",
          "name": "_raisedFor",
          "type": "address"
        },
        {
          "indexed": false,
          "internalType": "uint256",
          "name": "_amount",
          "type": "uint256"
        },
        {
          "indexed": false,
          "internalType": "uint16",
          "name": "_toBeRaisedInDays",
          "type": "uint16"
        },
        {
          "indexed": false,
          "internalType": "string",
          "name": "_about",
          "type": "string"
        },
        {
          "indexed": false,
          "internalType": "enum Fundraiser.Category",
          "name": "_category",
          "type": "uint8"
        }
      ],
      "name": "FundraiserStarted",
      "type": "event"
    },
    {
      "anonymous": false,
      "inputs": [
        {
          "indexed": true,
          "internalType": "address",
          "name": "previousOwner",
          "type": "address"
        },
        {
          "indexed": true,
          "internalType": "address",
          "name": "newOwner",
          "type": "address"
        }
      ],
      "name": "OwnershipTransferred",
      "type": "event"
    },
    {
      "anonymous": false,
      "inputs": [
        {
          "indexed": false,
          "internalType": "uint256",
          "name": "_fundraiser",
          "type": "uint256"
        },
        {
          "indexed": false,
          "internalType": "uint256",
          "name": "_updatedAmount",
          "type": "uint256"
        },
        {
          "indexed": false,
          "internalType": "string",
          "name": "_updatedAbout",
          "type": "string"
        },
        {
          "indexed": false,
          "internalType": "enum Fundraiser.Category",
          "name": "_updatedCategory",
          "type": "uint8"
        },
        {
          "indexed": false,
          "internalType": "uint16",
          "name": "_updatedNeededBefore",
          "type": "uint16"
        }
      ],
      "name": "UpdateSuccessful",
      "type": "event"
    },
    {
      "anonymous": false,
      "inputs": [
        {
          "indexed": false,
          "internalType": "uint256",
          "name": "_withdrawalFrom",
          "type": "uint256"
        },
        {
          "indexed": false,
          "internalType": "address",
          "name": "_withdrawalBy",
          "type": "address"
        },
        {
          "indexed": false,
          "internalType": "uint256",
          "name": "_amountWithdrawn",
          "type": "uint256"
        }
      ],
      "name": "WithdrawSuccessful",
      "type": "event"
    },
    {
      "inputs": [
        {
          "internalType": "uint256",
          "name": "_fundraiserId",
          "type": "uint256"
        },
        {
          "internalType": "bool",
          "name": "_status",
          "type": "bool"
        }
      ],
      "name": "blacklistFundraiser",
      "outputs": [],
      "stateMutability": "nonpayable",
      "type": "function"
    },
    {
      "inputs": [
        {
          "internalType": "uint256",
          "name": "",
          "type": "uint256"
        }
      ],
      "name": "blacklistedFundraisers",
      "outputs": [
        {
          "internalType": "bool",
          "name": "",
          "type": "bool"
        }
      ],
      "stateMutability": "view",
      "type": "function"
    },
    {
      "inputs": [
        {
          "internalType": "uint256",
          "name": "_fundraiserId",
          "type": "uint256"
        },
        {
          "internalType": "uint256",
          "name": "_transferAmt",
          "type": "uint256"
        }
      ],
      "name": "claimDonations",
      "outputs": [],
      "stateMutability": "payable",
      "type": "function"
    },
    {
      "inputs": [
        {
          "internalType": "uint256",
          "name": "_fundraiserId",
          "type": "uint256"
        }
      ],
      "name": "donateFunds",
      "outputs": [],
      "stateMutability": "payable",
      "type": "function"
    },
    {
      "inputs": [
        {
          "internalType": "uint256",
          "name": "",
          "type": "uint256"
        },
        {
          "internalType": "address",
          "name": "",
          "type": "address"
        }
      ],
      "name": "donors",
      "outputs": [
        {
          "internalType": "uint256",
          "name": "amount",
          "type": "uint256"
        },
        {
          "internalType": "uint256",
          "name": "donatedOn",
          "type": "uint256"
        }
      ],
      "stateMutability": "view",
      "type": "function"
    },
    {
      "inputs": [
        {
          "internalType": "uint256",
          "name": "",
          "type": "uint256"
        },
        {
          "internalType": "uint256",
          "name": "",
          "type": "uint256"
        }
      ],
      "name": "donorsAddressList",
      "outputs": [
        {
          "internalType": "address",
          "name": "",
          "type": "address"
        }
      ],
      "stateMutability": "view",
      "type": "function"
    },
    {
      "inputs": [
        {
          "internalType": "uint256",
          "name": "",
          "type": "uint256"
        }
      ],
      "name": "fundRaisers",
      "outputs": [
        {
          "internalType": "address",
          "name": "raisedBy",
          "type": "address"
        },
        {
          "internalType": "address",
          "name": "raisedFor",
          "type": "address"
        },
        {
          "internalType": "string",
          "name": "about",
          "type": "string"
        },
        {
          "internalType": "enum Fundraiser.Category",
          "name": "category",
          "type": "uint8"
        },
        {
          "internalType": "uint256",
          "name": "amount",
          "type": "uint256"
        },
        {
          "internalType": "uint256",
          "name": "amountRaised",
          "type": "uint256"
        },
        {
          "internalType": "uint16",
          "name": "neededBefore",
          "type": "uint16"
        },
        {
          "internalType": "uint256",
          "name": "totalSupportors",
          "type": "uint256"
        },
        {
          "internalType": "uint256",
          "name": "createdOn",
          "type": "uint256"
        },
        {
          "internalType": "bool",
          "name": "isActive",
          "type": "bool"
        },
        {
          "internalType": "uint256",
          "name": "amountClaimed",
          "type": "uint256"
        },
        {
          "internalType": "bool",
          "name": "amountReturned",
          "type": "bool"
        }
      ],
      "stateMutability": "view",
      "type": "function"
    },
    {
      "inputs": [
        {
          "internalType": "uint256",
          "name": "_fundraiserId",
          "type": "uint256"
        },
        {
          "internalType": "bool",
          "name": "_status",
          "type": "bool"
        }
      ],
      "name": "manageActiveStatusOfFundraiser",
      "outputs": [],
      "stateMutability": "nonpayable",
      "type": "function"
    },
    {
      "inputs": [],
      "name": "owner",
      "outputs": [
        {
          "internalType": "address",
          "name": "",
          "type": "address"
        }
      ],
      "stateMutability": "view",
      "type": "function"
    },
    {
      "inputs": [],
      "name": "renounceOwnership",
      "outputs": [],
      "stateMutability": "nonpayable",
      "type": "function"
    },
    {
      "inputs": [
        {
          "internalType": "address",
          "name": "_raisedFor",
          "type": "address"
        },
        {
          "internalType": "uint256",
          "name": "_amount",
          "type": "uint256"
        },
        {
          "internalType": "uint16",
          "name": "_toBeRaisedInDays",
          "type": "uint16"
        },
        {
          "internalType": "string",
          "name": "_about",
          "type": "string"
        },
        {
          "internalType": "enum Fundraiser.Category",
          "name": "_category",
          "type": "uint8"
        }
      ],
      "name": "startFundRaiser",
      "outputs": [],
      "stateMutability": "nonpayable",
      "type": "function"
    },
    {
      "inputs": [
        {
          "internalType": "uint256",
          "name": "_fundraiserId",
          "type": "uint256"
        }
      ],
      "name": "transferFundsBackToDonors",
      "outputs": [],
      "stateMutability": "payable",
      "type": "function"
    },
    {
      "inputs": [
        {
          "internalType": "address",
          "name": "newOwner",
          "type": "address"
        }
      ],
      "name": "transferOwnership",
      "outputs": [],
      "stateMutability": "nonpayable",
      "type": "function"
    },
    {
      "inputs": [
        {
          "internalType": "uint256",
          "name": "_fundraiserId",
          "type": "uint256"
        },
        {
          "internalType": "uint256",
          "name": "_amount",
          "type": "uint256"
        },
        {
          "internalType": "string",
          "name": "_about",
          "type": "string"
        },
        {
          "internalType": "enum Fundraiser.Category",
          "name": "_category",
          "type": "uint8"
        },
        {
          "internalType": "uint16",
          "name": "_neededBefore",
          "type": "uint16"
        }
      ],
      "name": "updateFundraiserDetails",
      "outputs": [],
      "stateMutability": "nonpayable",
      "type": "function"
    },
    {
      "inputs": [
        {
          "internalType": "uint256",
          "name": "_fundraiserId",
          "type": "uint256"
        },
        {
          "internalType": "uint256",
          "name": "_withdrawAmt",
          "type": "uint256"
        }
      ],
      "name": "withdrawFunds",
      "outputs": [],
      "stateMutability": "payable",
      "type": "function"
    }
  ],
  "bytecode": "0x60806040523480156200001157600080fd5b5062000032620000266200003860201b60201c565b6200004060201b60201c565b62000104565b600033905090565b60008060009054906101000a900473ffffffffffffffffffffffffffffffffffffffff169050816000806101000a81548173ffffffffffffffffffffffffffffffffffffffff021916908373ffffffffffffffffffffffffffffffffffffffff1602179055508173ffffffffffffffffffffffffffffffffffffffff168173ffffffffffffffffffffffffffffffffffffffff167f8be0079c531659141344cd1fd0a4f28419497f9722a3daafe3b4186f6b6457e060405160405180910390a35050565b61432380620001146000396000f3fe6080604052600436106100e85760003560e01c80638587e4541161008a578063de0d149511610059578063de0d1495146102e2578063e5253105146102fe578063ef449d141461031a578063f2fde38b14610343576100e8565b80638587e454146102355780638da5cb5b14610272578063b40dfb441461029d578063d32521a0146102c6576100e8565b80636b99246e116100c65780636b99246e1461017057806370eec57c14610199578063715018a6146101e15780637a4a2d95146101f8576100e8565b8063037bebee146100ed57806314649d4714610116578063189c470414610132575b600080fd5b3480156100f957600080fd5b50610114600480360381019061010f9190612b06565b61036c565b005b610130600480360381019061012b9190612b46565b610432565b005b34801561013e57600080fd5b5061015960048036038101906101549190612bd1565b61093f565b604051610167929190612c20565b60405180910390f35b34801561017c57600080fd5b5061019760048036038101906101929190612b06565b610970565b005b3480156101a557600080fd5b506101c060048036038101906101bb9190612b46565b610b70565b6040516101d89c9b9a99989796959493929190612d8b565b60405180910390f35b3480156101ed57600080fd5b506101f6610cdd565b005b34801561020457600080fd5b5061021f600480360381019061021a9190612b46565b610cf1565b60405161022c9190612e4c565b60405180910390f35b34801561024157600080fd5b5061025c60048036038101906102579190612e67565b610d11565b6040516102699190612ea7565b60405180910390f35b34801561027e57600080fd5b50610287610d5f565b6040516102949190612ea7565b60405180910390f35b3480156102a957600080fd5b506102c460048036038101906102bf9190613048565b610d88565b005b6102e060048036038101906102db9190612b46565b61124a565b005b6102fc60048036038101906102f79190612e67565b6119fd565b005b61031860048036038101906103139190612e67565b611d52565b005b34801561032657600080fd5b50610341600480360381019061033c91906130df565b6120db565b005b34801561034f57600080fd5b5061036a60048036038101906103659190613176565b6127ed565b005b610374612870565b816000811015801561038a575060018054905081105b6103c9576040517f08c379a00000000000000000000000000000000000000000000000000000000081526004016103c090613215565b60405180910390fd5b816004600085815260200190815260200160002060006101000a81548160ff0219169083151502179055507fa8482840668328bc33b875163115aba216489b95747611aaecb9111eb981e4918383604051610425929190613235565b60405180910390a1505050565b8060008110158015610448575060018054905081105b610487576040517f08c379a000000000000000000000000000000000000000000000000000000000815260040161047e90613215565b60405180910390fd5b3373ffffffffffffffffffffffffffffffffffffffff16600183815481106104b2576104b161325e565b5b90600052602060002090600c020160000160009054906101000a900473ffffffffffffffffffffffffffffffffffffffff1673ffffffffffffffffffffffffffffffffffffffff16148061057657503373ffffffffffffffffffffffffffffffffffffffff166001838154811061052c5761052b61325e565b5b90600052602060002090600c020160010160009054906101000a900473ffffffffffffffffffffffffffffffffffffffff1673ffffffffffffffffffffffffffffffffffffffff16145b806105b357503373ffffffffffffffffffffffffffffffffffffffff1661059b610d5f565b73ffffffffffffffffffffffffffffffffffffffff16145b6105f2576040517f08c379a00000000000000000000000000000000000000000000000000000000081526004016105e9906132ff565b60405180910390fd5b600182815481106106065761060561325e565b5b90600052602060002090600c0201600b0160009054906101000a900460ff1615610665576040517f08c379a000000000000000000000000000000000000000000000000000000000815260040161065c9061336b565b60405180910390fd5b60006001838154811061067b5761067a61325e565b5b90600052602060002090600c0201600a0154146106cd576040517f08c379a00000000000000000000000000000000000000000000000000000000081526004016106c490613423565b60405180910390fd5b6000600183815481106106e3576106e261325e565b5b90600052602060002090600c02016007015411610735576040517f08c379a000000000000000000000000000000000000000000000000000000000815260040161072c906134b5565b60405180910390fd5b60005b6001838154811061074c5761074b61325e565b5b90600052602060002090600c0201600701548110156108c657600060026000858152602001908152602001600020828154811061078c5761078b61325e565b5b9060005260206000200160009054906101000a900473ffffffffffffffffffffffffffffffffffffffff16905060006003600086815260200190815260200160002060008373ffffffffffffffffffffffffffffffffffffffff1673ffffffffffffffffffffffffffffffffffffffff1681526020019081526020016000206000015490508173ffffffffffffffffffffffffffffffffffffffff166108fc829081150290604051600060405180830381858888f19350505050158015610857573d6000803e3d6000fd5b5060006003600087815260200190815260200160002060008473ffffffffffffffffffffffffffffffffffffffff1673ffffffffffffffffffffffffffffffffffffffff16815260200190815260200160002060000181905550505080806108be90613504565b915050610738565b5060018083815481106108dc576108db61325e565b5b90600052602060002090600c0201600b0160006101000a81548160ff0219169083151502179055507f722358b1dc0555e1c89565fb9cd1424d79bce9fc3aa8ee0ebe920425bfe4454582604051610933919061354c565b60405180910390a15050565b6003602052816000526040600020602052806000526040600020600091509150508060000154908060010154905082565b8160008110158015610986575060018054905081105b6109c5576040517f08c379a00000000000000000000000000000000000000000000000000000000081526004016109bc90613215565b60405180910390fd5b823373ffffffffffffffffffffffffffffffffffffffff16600182815481106109f1576109f061325e565b5b90600052602060002090600c020160000160009054906101000a900473ffffffffffffffffffffffffffffffffffffffff1673ffffffffffffffffffffffffffffffffffffffff161480610ab557503373ffffffffffffffffffffffffffffffffffffffff1660018281548110610a6b57610a6a61325e565b5b90600052602060002090600c020160010160009054906101000a900473ffffffffffffffffffffffffffffffffffffffff1673ffffffffffffffffffffffffffffffffffffffff16145b610af4576040517f08c379a0000000000000000000000000000000000000000000000000000000008152600401610aeb906132ff565b60405180910390fd5b8260018581548110610b0957610b0861325e565b5b90600052602060002090600c020160090160006101000a81548160ff0219169083151502179055507fe409bced836c964ca9b8dfef18fa07d975507e45bb8cda268875528a22d513f68484604051610b62929190613235565b60405180910390a150505050565b60018181548110610b8057600080fd5b90600052602060002090600c02016000915090508060000160009054906101000a900473ffffffffffffffffffffffffffffffffffffffff16908060010160009054906101000a900473ffffffffffffffffffffffffffffffffffffffff1690806002018054610bef90613596565b80601f0160208091040260200160405190810160405280929190818152602001828054610c1b90613596565b8015610c685780601f10610c3d57610100808354040283529160200191610c68565b820191906000526020600020905b815481529060010190602001808311610c4b57829003601f168201915b5050505050908060030160009054906101000a900460ff16908060040154908060050154908060060160009054906101000a900461ffff16908060070154908060080154908060090160009054906101000a900460ff169080600a01549080600b0160009054906101000a900460ff1690508c565b610ce5612870565b610cef60006128ee565b565b60046020528060005260406000206000915054906101000a900460ff1681565b60026020528160005260406000208181548110610d2d57600080fd5b906000526020600020016000915091509054906101000a900473ffffffffffffffffffffffffffffffffffffffff1681565b60008060009054906101000a900473ffffffffffffffffffffffffffffffffffffffff16905090565b84610da88173ffffffffffffffffffffffffffffffffffffffff166129b2565b15610de8576040517f08c379a0000000000000000000000000000000000000000000000000000000008152600401610ddf90613613565b60405180910390fd5b600073ffffffffffffffffffffffffffffffffffffffff168673ffffffffffffffffffffffffffffffffffffffff1603610e57576040517f08c379a0000000000000000000000000000000000000000000000000000000008152600401610e4e9061367f565b60405180910390fd5b60008511610e9a576040517f08c379a0000000000000000000000000000000000000000000000000000000008152600401610e9190613711565b60405180910390fd5b60008461ffff1611610ee1576040517f08c379a0000000000000000000000000000000000000000000000000000000008152600401610ed8906137a3565b60405180910390fd5b6000600a811115610ef557610ef4612ce8565b5b82600a811115610f0857610f07612ce8565b5b10158015610f3a5750600a80811115610f2457610f23612ce8565b5b82600a811115610f3757610f36612ce8565b5b11155b610f79576040517f08c379a0000000000000000000000000000000000000000000000000000000008152600401610f7090613835565b60405180910390fd5b610f816129dd565b33816000019073ffffffffffffffffffffffffffffffffffffffff16908173ffffffffffffffffffffffffffffffffffffffff168152505086816020019073ffffffffffffffffffffffffffffffffffffffff16908173ffffffffffffffffffffffffffffffffffffffff168152505085816080018181525050848160c0019061ffff16908161ffff16815250504281610100018181525050600181610120019015159081151581525050828160600190600a81111561104457611043612ce8565b5b9081600a81111561105857611057612ce8565b5b8152505083816040018190525060018190806001815401808255809150506001900390600052602060002090600c020160009091909190915060008201518160000160006101000a81548173ffffffffffffffffffffffffffffffffffffffff021916908373ffffffffffffffffffffffffffffffffffffffff16021790555060208201518160010160006101000a81548173ffffffffffffffffffffffffffffffffffffffff021916908373ffffffffffffffffffffffffffffffffffffffff16021790555060408201518160020190816111349190613a01565b5060608201518160030160006101000a81548160ff0219169083600a8111156111605761115f612ce8565b5b02179055506080820151816004015560a0820151816005015560c08201518160060160006101000a81548161ffff021916908361ffff16021790555060e0820151816007015561010082015181600801556101208201518160090160006101000a81548160ff02191690831515021790555061014082015181600a015561016082015181600b0160006101000a81548160ff02191690831515021790555050507fb964a27a60af0a1ea239bfc8364b27e47ef8b15fa06fffc715ab75e82687374f33888888888860405161123996959493929190613ad3565b60405180910390a150505050505050565b8060008110158015611260575060018054905081105b61129f576040517f08c379a000000000000000000000000000000000000000000000000000000000815260040161129690613215565b60405180910390fd5b6004600083815260200190815260200160002060009054906101000a900460ff1615611300576040517f08c379a00000000000000000000000000000000000000000000000000000000081526004016112f790613bd3565b60405180910390fd5b6000600183815481106113165761131561325e565b5b90600052602060002090600c0201604051806101800160405290816000820160009054906101000a900473ffffffffffffffffffffffffffffffffffffffff1673ffffffffffffffffffffffffffffffffffffffff1673ffffffffffffffffffffffffffffffffffffffff1681526020016001820160009054906101000a900473ffffffffffffffffffffffffffffffffffffffff1673ffffffffffffffffffffffffffffffffffffffff1673ffffffffffffffffffffffffffffffffffffffff1681526020016002820180546113ec90613596565b80601f016020809104026020016040519081016040528092919081815260200182805461141890613596565b80156114655780601f1061143a57610100808354040283529160200191611465565b820191906000526020600020905b81548152906001019060200180831161144857829003601f168201915b505050505081526020016003820160009054906101000a900460ff16600a81111561149357611492612ce8565b5b600a8111156114a5576114a4612ce8565b5b815260200160048201548152602001600582015481526020016006820160009054906101000a900461ffff1661ffff1661ffff16815260200160078201548152602001600882015481526020016009820160009054906101000a900460ff16151515158152602001600a8201548152602001600b820160009054906101000a900460ff1615151515815250509050806101200151611578576040517f08c379a000000000000000000000000000000000000000000000000000000000815260040161156f90613c8b565b60405180910390fd5b8060800151341115801561159f57508060a00151816080015161159b9190613cab565b3411155b6115de576040517f08c379a00000000000000000000000000000000000000000000000000000000081526004016115d590613d9d565b60405180910390fd5b42620151808260c0015161ffff166115f69190613dcc565b62ffffff16426116069190613e09565b1015611647576040517f08c379a000000000000000000000000000000000000000000000000000000000815260040161163e90613eaf565b60405180910390fd5b60006003600085815260200190815260200160002060003373ffffffffffffffffffffffffffffffffffffffff1673ffffffffffffffffffffffffffffffffffffffff168152602001908152602001600020604051806040016040529081600082015481526020016001820154815250509050348260a0018181516116cc9190613e09565b91508181525050600081600001511480156116e8575060003414155b1561177c5760018260e0018181516117009190613e09565b9150818152505060026000858152602001908152602001600020339080600181540180825580915050600190039060005260206000200160009091909190916101000a81548173ffffffffffffffffffffffffffffffffffffffff021916908373ffffffffffffffffffffffffffffffffffffffff1602179055505b81608001518260a001510361179e576000826101200190151590811515815250505b81600185815481106117b3576117b261325e565b5b90600052602060002090600c020160008201518160000160006101000a81548173ffffffffffffffffffffffffffffffffffffffff021916908373ffffffffffffffffffffffffffffffffffffffff16021790555060208201518160010160006101000a81548173ffffffffffffffffffffffffffffffffffffffff021916908373ffffffffffffffffffffffffffffffffffffffff16021790555060408201518160020190816118649190613a01565b5060608201518160030160006101000a81548160ff0219169083600a8111156118905761188f612ce8565b5b02179055506080820151816004015560a0820151816005015560c08201518160060160006101000a81548161ffff021916908361ffff16021790555060e0820151816007015561010082015181600801556101208201518160090160006101000a81548160ff02191690831515021790555061014082015181600a015561016082015181600b0160006101000a81548160ff02191690831515021790555090505034816000018181516119439190613e09565b9150818152505042816020018181525050806003600086815260200190815260200160002060003373ffffffffffffffffffffffffffffffffffffffff1673ffffffffffffffffffffffffffffffffffffffff16815260200190815260200160002060008201518160000155602082015181600101559050507fc72924b9ed8e85c36a7485e8854a1cc92173309a80a6b66d48e7c98c357d5be83385346040516119ef93929190613ecf565b60405180910390a150505050565b8160008110158015611a13575060018054905081105b611a52576040517f08c379a0000000000000000000000000000000000000000000000000000000008152600401611a4990613215565b60405180910390fd5b823373ffffffffffffffffffffffffffffffffffffffff1660018281548110611a7e57611a7d61325e565b5b90600052602060002090600c020160000160009054906101000a900473ffffffffffffffffffffffffffffffffffffffff1673ffffffffffffffffffffffffffffffffffffffff161480611b4257503373ffffffffffffffffffffffffffffffffffffffff1660018281548110611af857611af761325e565b5b90600052602060002090600c020160010160009054906101000a900473ffffffffffffffffffffffffffffffffffffffff1673ffffffffffffffffffffffffffffffffffffffff16145b611b81576040517f08c379a0000000000000000000000000000000000000000000000000000000008152600401611b78906132ff565b60405180910390fd5b838360008110158015611bb9575060018281548110611ba357611ba261325e565b5b90600052602060002090600c0201600501548111155b8015611c1a575060018281548110611bd457611bd361325e565b5b90600052602060002090600c0201600a015460018381548110611bfa57611bf961325e565b5b90600052602060002090600c020160050154611c169190613cab565b8111155b611c59576040517f08c379a0000000000000000000000000000000000000000000000000000000008152600401611c5090613f52565b60405180910390fd5b8460018781548110611c6e57611c6d61325e565b5b90600052602060002090600c0201600a018190555060018681548110611c9757611c9661325e565b5b90600052602060002090600c020160010160009054906101000a900473ffffffffffffffffffffffffffffffffffffffff1673ffffffffffffffffffffffffffffffffffffffff166108fc869081150290604051600060405180830381858888f19350505050158015611d0e573d6000803e3d6000fd5b507f57c3741cd2dd99a95eb8dd0bdca1e866d026ac34e5afb1ec5caabdad1d6e490c863387604051611d4293929190613f72565b60405180910390a1505050505050565b8160008110158015611d68575060018054905081105b611da7576040517f08c379a0000000000000000000000000000000000000000000000000000000008152600401611d9e90613215565b60405180910390fd5b828260008110158015611ddf575060018281548110611dc957611dc861325e565b5b90600052602060002090600c0201600501548111155b8015611e40575060018281548110611dfa57611df961325e565b5b90600052602060002090600c0201600a015460018381548110611e2057611e1f61325e565b5b90600052602060002090600c020160050154611e3c9190613cab565b8111155b611e7f576040517f08c379a0000000000000000000000000000000000000000000000000000000008152600401611e7690613f52565b60405180910390fd5b836003600087815260200190815260200160002060003373ffffffffffffffffffffffffffffffffffffffff1673ffffffffffffffffffffffffffffffffffffffff168152602001908152602001600020600001541015611f15576040517f08c379a0000000000000000000000000000000000000000000000000000000008152600401611f0c9061401b565b60405180910390fd5b3373ffffffffffffffffffffffffffffffffffffffff166108fc859081150290604051600060405180830381858888f19350505050158015611f5b573d6000803e3d6000fd5b506003600086815260200190815260200160002060003373ffffffffffffffffffffffffffffffffffffffff1673ffffffffffffffffffffffffffffffffffffffff168152602001908152602001600020600001548403611ff3576001808681548110611fcb57611fca61325e565b5b90600052602060002090600c02016007016000828254611feb9190613cab565b925050819055505b836003600087815260200190815260200160002060003373ffffffffffffffffffffffffffffffffffffffff1673ffffffffffffffffffffffffffffffffffffffff16815260200190815260200160002060000160008282546120569190613cab565b9250508190555083600186815481106120725761207161325e565b5b90600052602060002090600c020160050160008282546120929190613cab565b925050819055507f2f3369a67f4244c1415396485c223848fd445eb40108b71bbf3072d3254d06648533866040516120cc93929190613f72565b60405180910390a15050505050565b84600081101580156120f1575060018054905081105b612130576040517f08c379a000000000000000000000000000000000000000000000000000000000815260040161212790613215565b60405180910390fd5b853373ffffffffffffffffffffffffffffffffffffffff166001828154811061215c5761215b61325e565b5b90600052602060002090600c020160000160009054906101000a900473ffffffffffffffffffffffffffffffffffffffff1673ffffffffffffffffffffffffffffffffffffffff16148061222057503373ffffffffffffffffffffffffffffffffffffffff16600182815481106121d6576121d561325e565b5b90600052602060002090600c020160010160009054906101000a900473ffffffffffffffffffffffffffffffffffffffff1673ffffffffffffffffffffffffffffffffffffffff16145b61225f576040517f08c379a0000000000000000000000000000000000000000000000000000000008152600401612256906132ff565b60405180910390fd5b6000600188815481106122755761227461325e565b5b90600052602060002090600c0201604051806101800160405290816000820160009054906101000a900473ffffffffffffffffffffffffffffffffffffffff1673ffffffffffffffffffffffffffffffffffffffff1673ffffffffffffffffffffffffffffffffffffffff1681526020016001820160009054906101000a900473ffffffffffffffffffffffffffffffffffffffff1673ffffffffffffffffffffffffffffffffffffffff1673ffffffffffffffffffffffffffffffffffffffff16815260200160028201805461234b90613596565b80601f016020809104026020016040519081016040528092919081815260200182805461237790613596565b80156123c45780601f10612399576101008083540402835291602001916123c4565b820191906000526020600020905b8154815290600101906020018083116123a757829003601f168201915b505050505081526020016003820160009054906101000a900460ff16600a8111156123f2576123f1612ce8565b5b600a81111561240457612403612ce8565b5b815260200160048201548152602001600582015481526020016006820160009054906101000a900461ffff1661ffff1661ffff16815260200160078201548152602001600882015481526020016009820160009054906101000a900460ff16151515158152602001600a8201548152602001600b820160009054906101000a900460ff16151515158152505090508060a001518710156124d9576040517f08c379a00000000000000000000000000000000000000000000000000000000081526004016124d0906140ad565b60405180910390fd5b8060c0015161ffff168461ffff1610156125575762015180848260c0015161250191906140cd565b61ffff1661250f9190613dcc565b62ffffff16421015612556576040517f08c379a000000000000000000000000000000000000000000000000000000000815260040161254d90614175565b60405180910390fd5b5b8060c0015161ffff168461ffff161461257f57838160c0019061ffff16908161ffff16815250505b868160800181815250508060a001518714801561259e57508061012001515b156125ba576000816101200190151590811515815250506125d8565b8061012001516125d7576001816101200190151590811515815250505b5b858160400181905250848160600190600a8111156125f9576125f8612ce8565b5b9081600a81111561260d5761260c612ce8565b5b8152505080600189815481106126265761262561325e565b5b90600052602060002090600c020160008201518160000160006101000a81548173ffffffffffffffffffffffffffffffffffffffff021916908373ffffffffffffffffffffffffffffffffffffffff16021790555060208201518160010160006101000a81548173ffffffffffffffffffffffffffffffffffffffff021916908373ffffffffffffffffffffffffffffffffffffffff16021790555060408201518160020190816126d79190613a01565b5060608201518160030160006101000a81548160ff0219169083600a81111561270357612702612ce8565b5b02179055506080820151816004015560a0820151816005015560c08201518160060160006101000a81548161ffff021916908361ffff16021790555060e0820151816007015561010082015181600801556101208201518160090160006101000a81548160ff02191690831515021790555061014082015181600a015561016082015181600b0160006101000a81548160ff0219169083151502179055509050507fea47fa186f8fb7522aeaa7c77aa8e55d782328a25bd5c2029c0187c5e16fbed188888888886040516127db959493929190614195565b60405180910390a15050505050505050565b6127f5612870565b600073ffffffffffffffffffffffffffffffffffffffff168173ffffffffffffffffffffffffffffffffffffffff1603612864576040517f08c379a000000000000000000000000000000000000000000000000000000000815260040161285b90614261565b60405180910390fd5b61286d816128ee565b50565b6128786129d5565b73ffffffffffffffffffffffffffffffffffffffff16612896610d5f565b73ffffffffffffffffffffffffffffffffffffffff16146128ec576040517f08c379a00000000000000000000000000000000000000000000000000000000081526004016128e3906142cd565b60405180910390fd5b565b60008060009054906101000a900473ffffffffffffffffffffffffffffffffffffffff169050816000806101000a81548173ffffffffffffffffffffffffffffffffffffffff021916908373ffffffffffffffffffffffffffffffffffffffff1602179055508173ffffffffffffffffffffffffffffffffffffffff168173ffffffffffffffffffffffffffffffffffffffff167f8be0079c531659141344cd1fd0a4f28419497f9722a3daafe3b4186f6b6457e060405160405180910390a35050565b6000808273ffffffffffffffffffffffffffffffffffffffff163b119050919050565b600033905090565b604051806101800160405280600073ffffffffffffffffffffffffffffffffffffffff168152602001600073ffffffffffffffffffffffffffffffffffffffff168152602001606081526020016000600a811115612a3e57612a3d612ce8565b5b81526020016000815260200160008152602001600061ffff1681526020016000815260200160008152602001600015158152602001600081526020016000151581525090565b6000604051905090565b600080fd5b600080fd5b6000819050919050565b612aab81612a98565b8114612ab657600080fd5b50565b600081359050612ac881612aa2565b92915050565b60008115159050919050565b612ae381612ace565b8114612aee57600080fd5b50565b600081359050612b0081612ada565b92915050565b60008060408385031215612b1d57612b1c612a8e565b5b6000612b2b85828601612ab9565b9250506020612b3c85828601612af1565b9150509250929050565b600060208284031215612b5c57612b5b612a8e565b5b6000612b6a84828501612ab9565b91505092915050565b600073ffffffffffffffffffffffffffffffffffffffff82169050919050565b6000612b9e82612b73565b9050919050565b612bae81612b93565b8114612bb957600080fd5b50565b600081359050612bcb81612ba5565b92915050565b60008060408385031215612be857612be7612a8e565b5b6000612bf685828601612ab9565b9250506020612c0785828601612bbc565b9150509250929050565b612c1a81612a98565b82525050565b6000604082019050612c356000830185612c11565b612c426020830184612c11565b9392505050565b612c5281612b93565b82525050565b600081519050919050565b600082825260208201905092915050565b60005b83811015612c92578082015181840152602081019050612c77565b60008484015250505050565b6000601f19601f8301169050919050565b6000612cba82612c58565b612cc48185612c63565b9350612cd4818560208601612c74565b612cdd81612c9e565b840191505092915050565b7f4e487b7100000000000000000000000000000000000000000000000000000000600052602160045260246000fd5b600b8110612d2857612d27612ce8565b5b50565b6000819050612d3982612d17565b919050565b6000612d4982612d2b565b9050919050565b612d5981612d3e565b82525050565b600061ffff82169050919050565b612d7681612d5f565b82525050565b612d8581612ace565b82525050565b600061018082019050612da1600083018f612c49565b612dae602083018e612c49565b8181036040830152612dc0818d612caf565b9050612dcf606083018c612d50565b612ddc608083018b612c11565b612de960a083018a612c11565b612df660c0830189612d6d565b612e0360e0830188612c11565b612e11610100830187612c11565b612e1f610120830186612d7c565b612e2d610140830185612c11565b612e3b610160830184612d7c565b9d9c50505050505050505050505050565b6000602082019050612e616000830184612d7c565b92915050565b60008060408385031215612e7e57612e7d612a8e565b5b6000612e8c85828601612ab9565b9250506020612e9d85828601612ab9565b9150509250929050565b6000602082019050612ebc6000830184612c49565b92915050565b612ecb81612d5f565b8114612ed657600080fd5b50565b600081359050612ee881612ec2565b92915050565b600080fd5b600080fd5b7f4e487b7100000000000000000000000000000000000000000000000000000000600052604160045260246000fd5b612f3082612c9e565b810181811067ffffffffffffffff82111715612f4f57612f4e612ef8565b5b80604052505050565b6000612f62612a84565b9050612f6e8282612f27565b919050565b600067ffffffffffffffff821115612f8e57612f8d612ef8565b5b612f9782612c9e565b9050602081019050919050565b82818337600083830152505050565b6000612fc6612fc184612f73565b612f58565b905082815260208101848484011115612fe257612fe1612ef3565b5b612fed848285612fa4565b509392505050565b600082601f83011261300a57613009612eee565b5b813561301a848260208601612fb3565b91505092915050565b600b811061303057600080fd5b50565b60008135905061304281613023565b92915050565b600080600080600060a0868803121561306457613063612a8e565b5b600061307288828901612bbc565b955050602061308388828901612ab9565b945050604061309488828901612ed9565b935050606086013567ffffffffffffffff8111156130b5576130b4612a93565b5b6130c188828901612ff5565b92505060806130d288828901613033565b9150509295509295909350565b600080600080600060a086880312156130fb576130fa612a8e565b5b600061310988828901612ab9565b955050602061311a88828901612ab9565b945050604086013567ffffffffffffffff81111561313b5761313a612a93565b5b61314788828901612ff5565b935050606061315888828901613033565b925050608061316988828901612ed9565b9150509295509295909350565b60006020828403121561318c5761318b612a8e565b5b600061319a84828501612bbc565b91505092915050565b7f4f6f70732120546869732066756e6472616973657220646f6573206e6f74206560008201527f7869737400000000000000000000000000000000000000000000000000000000602082015250565b60006131ff602483612c63565b915061320a826131a3565b604082019050919050565b6000602082019050818103600083015261322e816131f2565b9050919050565b600060408201905061324a6000830185612c11565b6132576020830184612d7c565b9392505050565b7f4e487b7100000000000000000000000000000000000000000000000000000000600052603260045260246000fd5b7f596f7520646f6e277420686176652073756666696369656e74207065726d697360008201527f73696f6e73000000000000000000000000000000000000000000000000000000602082015250565b60006132e9602583612c63565b91506132f48261328d565b604082019050919050565b60006020820190508181036000830152613318816132dc565b9050919050565b7f446f6e6174696f6e7320616c72656164792072657475726e6564000000000000600082015250565b6000613355601a83612c63565b91506133608261331f565b602082019050919050565b6000602082019050818103600083015261338481613348565b9050919050565b7f50617274206f6620646f6e6174696f6e2068617320616c72656164792062656560008201527f6e20636c61696d65642e20596f752063616e2774207472616e7366657220667560208201527f6e64730000000000000000000000000000000000000000000000000000000000604082015250565b600061340d604383612c63565b91506134188261338b565b606082019050919050565b6000602082019050818103600083015261343c81613400565b9050919050565b7f536f7272792120576520617265206e6f742061626c6520746f2066696e64206160008201527f6e7920646f6e6174696f6e730000000000000000000000000000000000000000602082015250565b600061349f602c83612c63565b91506134aa82613443565b604082019050919050565b600060208201905081810360008301526134ce81613492565b9050919050565b7f4e487b7100000000000000000000000000000000000000000000000000000000600052601160045260246000fd5b600061350f82612a98565b91507fffffffffffffffffffffffffffffffffffffffffffffffffffffffffffffffff8203613541576135406134d5565b5b600182019050919050565b60006020820190506135616000830184612c11565b92915050565b7f4e487b7100000000000000000000000000000000000000000000000000000000600052602260045260246000fd5b600060028204905060018216806135ae57607f821691505b6020821081036135c1576135c0613567565b5b50919050565b7f596f752063616e277420726169736520666f72206120636f6e74726163740000600082015250565b60006135fd601e83612c63565b9150613608826135c7565b602082019050919050565b6000602082019050818103600083015261362c816135f0565b9050919050565b7f4f6f707321204974277320616e20696e76616c69642061646472657373000000600082015250565b6000613669601d83612c63565b915061367482613633565b602082019050919050565b600060208201905081810360008301526136988161365c565b9050919050565b7f536f7272792120506c656173652061646420736f6d6520616d6f756e7420746f60008201527f2062652072616973656400000000000000000000000000000000000000000000602082015250565b60006136fb602a83612c63565b91506137068261369f565b604082019050919050565b6000602082019050818103600083015261372a816136ee565b9050919050565b7f476976652075732061746c6561737420312064617920746f207261697365206660008201527f756e647300000000000000000000000000000000000000000000000000000000602082015250565b600061378d602483612c63565b915061379882613731565b604082019050919050565b600060208201905081810360008301526137bc81613780565b9050919050565b7f536f7272792c20796f7520686176652073656c65637465642077726f6e67206360008201527f617465676f727900000000000000000000000000000000000000000000000000602082015250565b600061381f602783612c63565b915061382a826137c3565b604082019050919050565b6000602082019050818103600083015261384e81613812565b9050919050565b60008190508160005260206000209050919050565b60006020601f8301049050919050565b600082821b905092915050565b6000600883026138b77fffffffffffffffffffffffffffffffffffffffffffffffffffffffffffffffff8261387a565b6138c1868361387a565b95508019841693508086168417925050509392505050565b6000819050919050565b60006138fe6138f96138f484612a98565b6138d9565b612a98565b9050919050565b6000819050919050565b613918836138e3565b61392c61392482613905565b848454613887565b825550505050565b600090565b613941613934565b61394c81848461390f565b505050565b5b8181101561397057613965600082613939565b600181019050613952565b5050565b601f8211156139b55761398681613855565b61398f8461386a565b8101602085101561399e578190505b6139b26139aa8561386a565b830182613951565b50505b505050565b600082821c905092915050565b60006139d8600019846008026139ba565b1980831691505092915050565b60006139f183836139c7565b9150826002028217905092915050565b613a0a82612c58565b67ffffffffffffffff811115613a2357613a22612ef8565b5b613a2d8254613596565b613a38828285613974565b600060209050601f831160018114613a6b5760008415613a59578287015190505b613a6385826139e5565b865550613acb565b601f198416613a7986613855565b60005b82811015613aa157848901518255600182019150602085019450602081019050613a7c565b86831015613abe5784890151613aba601f8916826139c7565b8355505b6001600288020188555050505b505050505050565b600060c082019050613ae86000830189612c49565b613af56020830188612c49565b613b026040830187612c11565b613b0f6060830186612d6d565b8181036080830152613b218185612caf565b9050613b3060a0830184612d50565b979650505050505050565b7f536f7272792120546869732066756e6472616973657220686173206265656e2060008201527f626c61636b6c69737465642e2049742063616e206e6f206c6f6e67657220726160208201527f6973652066756e64730000000000000000000000000000000000000000000000604082015250565b6000613bbd604983612c63565b9150613bc882613b3b565b606082019050919050565b60006020820190508181036000830152613bec81613bb0565b9050919050565b7f456974686572207468652066756e64726169736572206973206e6f206c6f6e6760008201527f657220616363657074696e6720646f6e6174696f6e73206f722048652068617360208201527f2072616973656420746865206e656564656420616d6f756e7400000000000000604082015250565b6000613c75605983612c63565b9150613c8082613bf3565b606082019050919050565b60006020820190508181036000830152613ca481613c68565b9050919050565b6000613cb682612a98565b9150613cc183612a98565b9250828203905081811115613cd957613cd86134d5565b5b92915050565b7f5468616e6b20596f7520666f7220796f75722068656c7020627574207765206360008201527f616e2774206163636570742066756e6473206173207468652066756e6472616960208201527f73657220646f65736e2774206e6565642074686174206d7563682066756e647360408201527f2e00000000000000000000000000000000000000000000000000000000000000606082015250565b6000613d87606183612c63565b9150613d9282613cdf565b608082019050919050565b60006020820190508181036000830152613db681613d7a565b9050919050565b600062ffffff82169050919050565b6000613dd782613dbd565b9150613de283613dbd565b9250828202613df081613dbd565b9150808214613e0257613e016134d5565b5b5092915050565b6000613e1482612a98565b9150613e1f83612a98565b9250828201905080821115613e3757613e366134d5565b5b92915050565b7f536f72727921205468652074696d65706572696f6420746f207261697365206660008201527f756e647320686173207061737365640000000000000000000000000000000000602082015250565b6000613e99602f83612c63565b9150613ea482613e3d565b604082019050919050565b60006020820190508181036000830152613ec881613e8c565b9050919050565b6000606082019050613ee46000830186612c49565b613ef16020830185612c11565b613efe6040830184612c11565b949350505050565b7f536f7272792120496e73756666696369656e742062616c616e63650000000000600082015250565b6000613f3c601b83612c63565b9150613f4782613f06565b602082019050919050565b60006020820190508181036000830152613f6b81613f2f565b9050919050565b6000606082019050613f876000830186612c11565b613f946020830185612c49565b613fa16040830184612c11565b949350505050565b7f536f7272792120596f757220646f6e6174656420616d6f7574206973206c657360008201527f73207468616e20796f7572207769746864726177616c20616d6f756e74000000602082015250565b6000614005603d83612c63565b915061401082613fa9565b604082019050919050565b6000602082019050818103600083015261403481613ff8565b9050919050565b7f546865206e65772072616973656420616d6f756e74206973206c65737320746860008201527f616e207468652063757272656e7420616d6f756e742072616973656400000000602082015250565b6000614097603c83612c63565b91506140a28261403b565b604082019050919050565b600060208201905081810360008301526140c68161408a565b9050919050565b60006140d882612d5f565b91506140e383612d5f565b9250828203905061ffff8111156140fd576140fc6134d5565b5b92915050565b7f506c656173652067697665207573206d6f72652074696d6520746f207261697360008201527f65207468652066756e6473000000000000000000000000000000000000000000602082015250565b600061415f602b83612c63565b915061416a82614103565b604082019050919050565b6000602082019050818103600083015261418e81614152565b9050919050565b600060a0820190506141aa6000830188612c11565b6141b76020830187612c11565b81810360408301526141c98186612caf565b90506141d86060830185612d50565b6141e56080830184612d6d565b9695505050505050565b7f4f776e61626c653a206e6577206f776e657220697320746865207a65726f206160008201527f6464726573730000000000000000000000000000000000000000000000000000602082015250565b600061424b602683612c63565b9150614256826141ef565b604082019050919050565b6000602082019050818103600083015261427a8161423e565b9050919050565b7f4f776e61626c653a2063616c6c6572206973206e6f7420746865206f776e6572600082015250565b60006142b7602083612c63565b91506142c282614281565b602082019050919050565b600060208201905081810360008301526142e6816142aa565b905091905056fea2646970667358221220aabd7331eb768446bf57ffdf9a15db464df22eb2c5637361c72cc7d79a712b2364736f6c63430008120033",
  "linkReferences": {},
  "deployedLinkReferences": {}
}