{
  "_format": "hh-sol-artifact-1",
  "contractName": "Fundraiser",
  "sourceName": "contracts/FundraiserContract.sol",
  "abi": [
    {
      "anonymous": false,
      "inputs": [
        {
          "indexed": false,
          "internalType": "uint256",
          "name": "_fundraiser",
          "type": "uint256"
        },
        {
          "indexed": false,
          "internalType": "bool",
          "name": "_activationStatus",
          "type": "bool"
        }
      ],
      "name": "ActivationStautsChanged",
      "type": "event"
    },
    {
      "anonymous": false,
      "inputs": [
        {
          "indexed": false,
          "internalType": "uint256",
          "name": "_returnedFrom",
          "type": "uint256"
        }
      ],
      "name": "AmountSuccessfullyReturnedToDonors",
      "type": "event"
    },
    {
      "anonymous": false,
      "inputs": [
        {
          "indexed": false,
          "internalType": "uint256",
          "name": "fundRaiser",
          "type": "uint256"
        },
        {
          "indexed": false,
          "internalType": "bool",
          "name": "_blacklistStatus",
          "type": "bool"
        }
      ],
      "name": "BlacklistedStatusChanged",
      "type": "event"
    },
    {
      "anonymous": false,
      "inputs": [
        {
          "indexed": false,
          "internalType": "uint256",
          "name": "_claimedFrom",
          "type": "uint256"
        },
        {
          "indexed": false,
          "internalType": "address",
          "name": "_claimedBy",
          "type": "address"
        },
        {
          "indexed": false,
          "internalType": "uint256",
          "name": "_amountCliamed",
          "type": "uint256"
        }
      ],
      "name": "ClaimSuccessful",
      "type": "event"
    },
    {
      "anonymous": false,
      "inputs": [
        {
          "indexed": false,
          "internalType": "address",
          "name": "_donatedBy",
          "type": "address"
        },
        {
          "indexed": false,
          "internalType": "uint256",
          "name": "_donatedTo",
          "type": "uint256"
        },
        {
          "indexed": false,
          "internalType": "uint256",
          "name": "_amountDonated",
          "type": "uint256"
        }
      ],
      "name": "DonationSuccessful",
      "type": "event"
    },
    {
      "anonymous": false,
      "inputs": [
        {
          "indexed": false,
          "internalType": "address",
          "name": "_raisedBy",
          "type": "address"
        },
        {
          "indexed": false,
          "internalType": "address",
          "name": "_raisedFor",
          "type": "address"
        },
        {
          "indexed": false,
          "internalType": "uint256",
          "name": "_amount",
          "type": "uint256"
        },
        {
          "indexed": false,
          "internalType": "uint16",
          "name": "_toBeRaisedInDays",
          "type": "uint16"
        },
        {
          "indexed": false,
          "internalType": "string",
          "name": "_about",
          "type": "string"
        },
        {
          "indexed": false,
          "internalType": "enum Fundraiser.Category",
          "name": "_category",
          "type": "uint8"
        }
      ],
      "name": "FundraiserStarted",
      "type": "event"
    },
    {
      "anonymous": false,
      "inputs": [
        {
          "indexed": true,
          "internalType": "address",
          "name": "previousOwner",
          "type": "address"
        },
        {
          "indexed": true,
          "internalType": "address",
          "name": "newOwner",
          "type": "address"
        }
      ],
      "name": "OwnershipTransferred",
      "type": "event"
    },
    {
      "anonymous": false,
      "inputs": [
        {
          "indexed": false,
          "internalType": "uint256",
          "name": "_fundraiser",
          "type": "uint256"
        },
        {
          "indexed": false,
          "internalType": "uint256",
          "name": "_updatedAmount",
          "type": "uint256"
        },
        {
          "indexed": false,
          "internalType": "string",
          "name": "_updatedAbout",
          "type": "string"
        },
        {
          "indexed": false,
          "internalType": "enum Fundraiser.Category",
          "name": "_updatedCategory",
          "type": "uint8"
        },
        {
          "indexed": false,
          "internalType": "uint16",
          "name": "_updatedNeededBefore",
          "type": "uint16"
        }
      ],
      "name": "UpdateSuccessful",
      "type": "event"
    },
    {
      "anonymous": false,
      "inputs": [
        {
          "indexed": false,
          "internalType": "uint256",
          "name": "_withdrawalFrom",
          "type": "uint256"
        },
        {
          "indexed": false,
          "internalType": "address",
          "name": "_withdrawalBy",
          "type": "address"
        },
        {
          "indexed": false,
          "internalType": "uint256",
          "name": "_amountWithdrawn",
          "type": "uint256"
        }
      ],
      "name": "WithdrawSuccessful",
      "type": "event"
    },
    {
      "inputs": [
        {
          "internalType": "uint256",
          "name": "_fundraiserId",
          "type": "uint256"
        },
        {
          "internalType": "bool",
          "name": "_status",
          "type": "bool"
        }
      ],
      "name": "blacklistFundraiser",
      "outputs": [],
      "stateMutability": "nonpayable",
      "type": "function"
    },
    {
      "inputs": [
        {
          "internalType": "uint256",
          "name": "",
          "type": "uint256"
        }
      ],
      "name": "blacklistedFundraisers",
      "outputs": [
        {
          "internalType": "bool",
          "name": "",
          "type": "bool"
        }
      ],
      "stateMutability": "view",
      "type": "function"
    },
    {
      "inputs": [
        {
          "internalType": "uint256",
          "name": "_fundraiserId",
          "type": "uint256"
        },
        {
          "internalType": "uint256",
          "name": "_transferAmt",
          "type": "uint256"
        }
      ],
      "name": "claimDonations",
      "outputs": [],
      "stateMutability": "payable",
      "type": "function"
    },
    {
      "inputs": [
        {
          "internalType": "uint256",
          "name": "_fundraiserId",
          "type": "uint256"
        }
      ],
      "name": "donateFunds",
      "outputs": [],
      "stateMutability": "payable",
      "type": "function"
    },
    {
      "inputs": [
        {
          "internalType": "uint256",
          "name": "",
          "type": "uint256"
        },
        {
          "internalType": "address",
          "name": "",
          "type": "address"
        }
      ],
      "name": "donors",
      "outputs": [
        {
          "internalType": "uint256",
          "name": "amount",
          "type": "uint256"
        },
        {
          "internalType": "uint256",
          "name": "donatedOn",
          "type": "uint256"
        }
      ],
      "stateMutability": "view",
      "type": "function"
    },
    {
      "inputs": [
        {
          "internalType": "uint256",
          "name": "",
          "type": "uint256"
        },
        {
          "internalType": "uint256",
          "name": "",
          "type": "uint256"
        }
      ],
      "name": "donorsAddressList",
      "outputs": [
        {
          "internalType": "address",
          "name": "",
          "type": "address"
        }
      ],
      "stateMutability": "view",
      "type": "function"
    },
    {
      "inputs": [
        {
          "internalType": "uint256",
          "name": "",
          "type": "uint256"
        }
      ],
      "name": "fundRaisers",
      "outputs": [
        {
          "internalType": "address",
          "name": "raisedBy",
          "type": "address"
        },
        {
          "internalType": "address",
          "name": "raisedFor",
          "type": "address"
        },
        {
          "internalType": "string",
          "name": "about",
          "type": "string"
        },
        {
          "internalType": "enum Fundraiser.Category",
          "name": "category",
          "type": "uint8"
        },
        {
          "internalType": "uint256",
          "name": "amount",
          "type": "uint256"
        },
        {
          "internalType": "uint256",
          "name": "amountRaised",
          "type": "uint256"
        },
        {
          "internalType": "uint16",
          "name": "neededBefore",
          "type": "uint16"
        },
        {
          "internalType": "uint256",
          "name": "totalSupportors",
          "type": "uint256"
        },
        {
          "internalType": "uint256",
          "name": "createdOn",
          "type": "uint256"
        },
        {
          "internalType": "bool",
          "name": "isActive",
          "type": "bool"
        },
        {
          "internalType": "uint256",
          "name": "amountClaimed",
          "type": "uint256"
        },
        {
          "internalType": "bool",
          "name": "amountReturned",
          "type": "bool"
        }
      ],
      "stateMutability": "view",
      "type": "function"
    },
    {
      "inputs": [],
      "name": "getTotalFundraisers",
      "outputs": [
        {
          "internalType": "uint256",
          "name": "",
          "type": "uint256"
        }
      ],
      "stateMutability": "view",
      "type": "function"
    },
    {
      "inputs": [
        {
          "internalType": "uint256",
          "name": "_fundraiserId",
          "type": "uint256"
        },
        {
          "internalType": "bool",
          "name": "_status",
          "type": "bool"
        }
      ],
      "name": "manageActiveStatusOfFundraiser",
      "outputs": [],
      "stateMutability": "nonpayable",
      "type": "function"
    },
    {
      "inputs": [],
      "name": "owner",
      "outputs": [
        {
          "internalType": "address",
          "name": "",
          "type": "address"
        }
      ],
      "stateMutability": "view",
      "type": "function"
    },
    {
      "inputs": [],
      "name": "renounceOwnership",
      "outputs": [],
      "stateMutability": "nonpayable",
      "type": "function"
    },
    {
      "inputs": [
        {
          "internalType": "address",
          "name": "_raisedFor",
          "type": "address"
        },
        {
          "internalType": "uint256",
          "name": "_amount",
          "type": "uint256"
        },
        {
          "internalType": "uint16",
          "name": "_toBeRaisedInDays",
          "type": "uint16"
        },
        {
          "internalType": "string",
          "name": "_about",
          "type": "string"
        },
        {
          "internalType": "enum Fundraiser.Category",
          "name": "_category",
          "type": "uint8"
        }
      ],
      "name": "startFundRaiser",
      "outputs": [],
      "stateMutability": "nonpayable",
      "type": "function"
    },
    {
      "inputs": [
        {
          "internalType": "uint256",
          "name": "_fundraiserId",
          "type": "uint256"
        }
      ],
      "name": "transferFundsBackToDonors",
      "outputs": [],
      "stateMutability": "payable",
      "type": "function"
    },
    {
      "inputs": [
        {
          "internalType": "address",
          "name": "newOwner",
          "type": "address"
        }
      ],
      "name": "transferOwnership",
      "outputs": [],
      "stateMutability": "nonpayable",
      "type": "function"
    },
    {
      "inputs": [
        {
          "internalType": "uint256",
          "name": "_fundraiserId",
          "type": "uint256"
        },
        {
          "internalType": "uint256",
          "name": "_amount",
          "type": "uint256"
        },
        {
          "internalType": "string",
          "name": "_about",
          "type": "string"
        },
        {
          "internalType": "enum Fundraiser.Category",
          "name": "_category",
          "type": "uint8"
        },
        {
          "internalType": "uint16",
          "name": "_neededBefore",
          "type": "uint16"
        }
      ],
      "name": "updateFundraiserDetails",
      "outputs": [],
      "stateMutability": "nonpayable",
      "type": "function"
    },
    {
      "inputs": [
        {
          "internalType": "uint256",
          "name": "_fundraiserId",
          "type": "uint256"
        },
        {
          "internalType": "uint256",
          "name": "_withdrawAmt",
          "type": "uint256"
        }
      ],
      "name": "withdrawFunds",
      "outputs": [],
      "stateMutability": "payable",
      "type": "function"
    }
  ],
  "bytecode": "0x60806040523480156200001157600080fd5b5062000032620000266200003860201b60201c565b6200004060201b60201c565b62000104565b600033905090565b60008060009054906101000a900473ffffffffffffffffffffffffffffffffffffffff169050816000806101000a81548173ffffffffffffffffffffffffffffffffffffffff021916908373ffffffffffffffffffffffffffffffffffffffff1602179055508173ffffffffffffffffffffffffffffffffffffffff168173ffffffffffffffffffffffffffffffffffffffff167f8be0079c531659141344cd1fd0a4f28419497f9722a3daafe3b4186f6b6457e060405160405180910390a35050565b61436680620001146000396000f3fe6080604052600436106100f35760003560e01c80638da5cb5b1161008a578063de0d149511610059578063de0d149514610318578063e525310514610334578063ef449d1414610350578063f2fde38b14610379576100f3565b80638da5cb5b1461027d5780639755c269146102a8578063b40dfb44146102d3578063d32521a0146102fc576100f3565b806370eec57c116100c657806370eec57c146101a4578063715018a6146101ec5780637a4a2d95146102035780638587e45414610240576100f3565b8063037bebee146100f857806314649d4714610121578063189c47041461013d5780636b99246e1461017b575b600080fd5b34801561010457600080fd5b5061011f600480360381019061011a9190612b49565b6103a2565b005b61013b60048036038101906101369190612b89565b610468565b005b34801561014957600080fd5b50610164600480360381019061015f9190612c14565b610975565b604051610172929190612c63565b60405180910390f35b34801561018757600080fd5b506101a2600480360381019061019d9190612b49565b6109a6565b005b3480156101b057600080fd5b506101cb60048036038101906101c69190612b89565b610ba6565b6040516101e39c9b9a99989796959493929190612dce565b60405180910390f35b3480156101f857600080fd5b50610201610d13565b005b34801561020f57600080fd5b5061022a60048036038101906102259190612b89565b610d27565b6040516102379190612e8f565b60405180910390f35b34801561024c57600080fd5b5061026760048036038101906102629190612eaa565b610d47565b6040516102749190612eea565b60405180910390f35b34801561028957600080fd5b50610292610d95565b60405161029f9190612eea565b60405180910390f35b3480156102b457600080fd5b506102bd610dbe565b6040516102ca9190612f05565b60405180910390f35b3480156102df57600080fd5b506102fa60048036038101906102f591906130a6565b610dcb565b005b61031660048036038101906103119190612b89565b61128d565b005b610332600480360381019061032d9190612eaa565b611a40565b005b61034e60048036038101906103499190612eaa565b611d95565b005b34801561035c57600080fd5b506103776004803603810190610372919061313d565b61211e565b005b34801561038557600080fd5b506103a0600480360381019061039b91906131d4565b612830565b005b6103aa6128b3565b81600081101580156103c0575060018054905081105b6103ff576040517f08c379a00000000000000000000000000000000000000000000000000000000081526004016103f690613273565b60405180910390fd5b816004600085815260200190815260200160002060006101000a81548160ff0219169083151502179055507fa8482840668328bc33b875163115aba216489b95747611aaecb9111eb981e491838360405161045b929190613293565b60405180910390a1505050565b806000811015801561047e575060018054905081105b6104bd576040517f08c379a00000000000000000000000000000000000000000000000000000000081526004016104b490613273565b60405180910390fd5b3373ffffffffffffffffffffffffffffffffffffffff16600183815481106104e8576104e76132bc565b5b90600052602060002090600c020160000160009054906101000a900473ffffffffffffffffffffffffffffffffffffffff1673ffffffffffffffffffffffffffffffffffffffff1614806105ac57503373ffffffffffffffffffffffffffffffffffffffff1660018381548110610562576105616132bc565b5b90600052602060002090600c020160010160009054906101000a900473ffffffffffffffffffffffffffffffffffffffff1673ffffffffffffffffffffffffffffffffffffffff16145b806105e957503373ffffffffffffffffffffffffffffffffffffffff166105d1610d95565b73ffffffffffffffffffffffffffffffffffffffff16145b610628576040517f08c379a000000000000000000000000000000000000000000000000000000000815260040161061f9061335d565b60405180910390fd5b6001828154811061063c5761063b6132bc565b5b90600052602060002090600c0201600b0160009054906101000a900460ff161561069b576040517f08c379a0000000000000000000000000000000000000000000000000000000008152600401610692906133c9565b60405180910390fd5b6000600183815481106106b1576106b06132bc565b5b90600052602060002090600c0201600a015414610703576040517f08c379a00000000000000000000000000000000000000000000000000000000081526004016106fa90613481565b60405180910390fd5b600060018381548110610719576107186132bc565b5b90600052602060002090600c0201600701541161076b576040517f08c379a000000000000000000000000000000000000000000000000000000000815260040161076290613513565b60405180910390fd5b60005b60018381548110610782576107816132bc565b5b90600052602060002090600c0201600701548110156108fc5760006002600085815260200190815260200160002082815481106107c2576107c16132bc565b5b9060005260206000200160009054906101000a900473ffffffffffffffffffffffffffffffffffffffff16905060006003600086815260200190815260200160002060008373ffffffffffffffffffffffffffffffffffffffff1673ffffffffffffffffffffffffffffffffffffffff1681526020019081526020016000206000015490508173ffffffffffffffffffffffffffffffffffffffff166108fc829081150290604051600060405180830381858888f1935050505015801561088d573d6000803e3d6000fd5b5060006003600087815260200190815260200160002060008473ffffffffffffffffffffffffffffffffffffffff1673ffffffffffffffffffffffffffffffffffffffff16815260200190815260200160002060000181905550505080806108f490613562565b91505061076e565b506001808381548110610912576109116132bc565b5b90600052602060002090600c0201600b0160006101000a81548160ff0219169083151502179055507f722358b1dc0555e1c89565fb9cd1424d79bce9fc3aa8ee0ebe920425bfe44545826040516109699190612f05565b60405180910390a15050565b6003602052816000526040600020602052806000526040600020600091509150508060000154908060010154905082565b81600081101580156109bc575060018054905081105b6109fb576040517f08c379a00000000000000000000000000000000000000000000000000000000081526004016109f290613273565b60405180910390fd5b823373ffffffffffffffffffffffffffffffffffffffff1660018281548110610a2757610a266132bc565b5b90600052602060002090600c020160000160009054906101000a900473ffffffffffffffffffffffffffffffffffffffff1673ffffffffffffffffffffffffffffffffffffffff161480610aeb57503373ffffffffffffffffffffffffffffffffffffffff1660018281548110610aa157610aa06132bc565b5b90600052602060002090600c020160010160009054906101000a900473ffffffffffffffffffffffffffffffffffffffff1673ffffffffffffffffffffffffffffffffffffffff16145b610b2a576040517f08c379a0000000000000000000000000000000000000000000000000000000008152600401610b219061335d565b60405180910390fd5b8260018581548110610b3f57610b3e6132bc565b5b90600052602060002090600c020160090160006101000a81548160ff0219169083151502179055507fe409bced836c964ca9b8dfef18fa07d975507e45bb8cda268875528a22d513f68484604051610b98929190613293565b60405180910390a150505050565b60018181548110610bb657600080fd5b90600052602060002090600c02016000915090508060000160009054906101000a900473ffffffffffffffffffffffffffffffffffffffff16908060010160009054906101000a900473ffffffffffffffffffffffffffffffffffffffff1690806002018054610c25906135d9565b80601f0160208091040260200160405190810160405280929190818152602001828054610c51906135d9565b8015610c9e5780601f10610c7357610100808354040283529160200191610c9e565b820191906000526020600020905b815481529060010190602001808311610c8157829003601f168201915b5050505050908060030160009054906101000a900460ff16908060040154908060050154908060060160009054906101000a900461ffff16908060070154908060080154908060090160009054906101000a900460ff169080600a01549080600b0160009054906101000a900460ff1690508c565b610d1b6128b3565b610d256000612931565b565b60046020528060005260406000206000915054906101000a900460ff1681565b60026020528160005260406000208181548110610d6357600080fd5b906000526020600020016000915091509054906101000a900473ffffffffffffffffffffffffffffffffffffffff1681565b60008060009054906101000a900473ffffffffffffffffffffffffffffffffffffffff16905090565b6000600180549050905090565b84610deb8173ffffffffffffffffffffffffffffffffffffffff166129f5565b15610e2b576040517f08c379a0000000000000000000000000000000000000000000000000000000008152600401610e2290613656565b60405180910390fd5b600073ffffffffffffffffffffffffffffffffffffffff168673ffffffffffffffffffffffffffffffffffffffff1603610e9a576040517f08c379a0000000000000000000000000000000000000000000000000000000008152600401610e91906136c2565b60405180910390fd5b60008511610edd576040517f08c379a0000000000000000000000000000000000000000000000000000000008152600401610ed490613754565b60405180910390fd5b60008461ffff1611610f24576040517f08c379a0000000000000000000000000000000000000000000000000000000008152600401610f1b906137e6565b60405180910390fd5b6000600a811115610f3857610f37612d2b565b5b82600a811115610f4b57610f4a612d2b565b5b10158015610f7d5750600a80811115610f6757610f66612d2b565b5b82600a811115610f7a57610f79612d2b565b5b11155b610fbc576040517f08c379a0000000000000000000000000000000000000000000000000000000008152600401610fb390613878565b60405180910390fd5b610fc4612a20565b33816000019073ffffffffffffffffffffffffffffffffffffffff16908173ffffffffffffffffffffffffffffffffffffffff168152505086816020019073ffffffffffffffffffffffffffffffffffffffff16908173ffffffffffffffffffffffffffffffffffffffff168152505085816080018181525050848160c0019061ffff16908161ffff16815250504281610100018181525050600181610120019015159081151581525050828160600190600a81111561108757611086612d2b565b5b9081600a81111561109b5761109a612d2b565b5b8152505083816040018190525060018190806001815401808255809150506001900390600052602060002090600c020160009091909190915060008201518160000160006101000a81548173ffffffffffffffffffffffffffffffffffffffff021916908373ffffffffffffffffffffffffffffffffffffffff16021790555060208201518160010160006101000a81548173ffffffffffffffffffffffffffffffffffffffff021916908373ffffffffffffffffffffffffffffffffffffffff16021790555060408201518160020190816111779190613a44565b5060608201518160030160006101000a81548160ff0219169083600a8111156111a3576111a2612d2b565b5b02179055506080820151816004015560a0820151816005015560c08201518160060160006101000a81548161ffff021916908361ffff16021790555060e0820151816007015561010082015181600801556101208201518160090160006101000a81548160ff02191690831515021790555061014082015181600a015561016082015181600b0160006101000a81548160ff02191690831515021790555050507fb964a27a60af0a1ea239bfc8364b27e47ef8b15fa06fffc715ab75e82687374f33888888888860405161127c96959493929190613b16565b60405180910390a150505050505050565b80600081101580156112a3575060018054905081105b6112e2576040517f08c379a00000000000000000000000000000000000000000000000000000000081526004016112d990613273565b60405180910390fd5b6004600083815260200190815260200160002060009054906101000a900460ff1615611343576040517f08c379a000000000000000000000000000000000000000000000000000000000815260040161133a90613c16565b60405180910390fd5b600060018381548110611359576113586132bc565b5b90600052602060002090600c0201604051806101800160405290816000820160009054906101000a900473ffffffffffffffffffffffffffffffffffffffff1673ffffffffffffffffffffffffffffffffffffffff1673ffffffffffffffffffffffffffffffffffffffff1681526020016001820160009054906101000a900473ffffffffffffffffffffffffffffffffffffffff1673ffffffffffffffffffffffffffffffffffffffff1673ffffffffffffffffffffffffffffffffffffffff16815260200160028201805461142f906135d9565b80601f016020809104026020016040519081016040528092919081815260200182805461145b906135d9565b80156114a85780601f1061147d576101008083540402835291602001916114a8565b820191906000526020600020905b81548152906001019060200180831161148b57829003601f168201915b505050505081526020016003820160009054906101000a900460ff16600a8111156114d6576114d5612d2b565b5b600a8111156114e8576114e7612d2b565b5b815260200160048201548152602001600582015481526020016006820160009054906101000a900461ffff1661ffff1661ffff16815260200160078201548152602001600882015481526020016009820160009054906101000a900460ff16151515158152602001600a8201548152602001600b820160009054906101000a900460ff16151515158152505090508061012001516115bb576040517f08c379a00000000000000000000000000000000000000000000000000000000081526004016115b290613cce565b60405180910390fd5b806080015134111580156115e257508060a0015181608001516115de9190613cee565b3411155b611621576040517f08c379a000000000000000000000000000000000000000000000000000000000815260040161161890613de0565b60405180910390fd5b42620151808260c0015161ffff166116399190613e0f565b62ffffff16426116499190613e4c565b101561168a576040517f08c379a000000000000000000000000000000000000000000000000000000000815260040161168190613ef2565b60405180910390fd5b60006003600085815260200190815260200160002060003373ffffffffffffffffffffffffffffffffffffffff1673ffffffffffffffffffffffffffffffffffffffff168152602001908152602001600020604051806040016040529081600082015481526020016001820154815250509050348260a00181815161170f9190613e4c565b915081815250506000816000015114801561172b575060003414155b156117bf5760018260e0018181516117439190613e4c565b9150818152505060026000858152602001908152602001600020339080600181540180825580915050600190039060005260206000200160009091909190916101000a81548173ffffffffffffffffffffffffffffffffffffffff021916908373ffffffffffffffffffffffffffffffffffffffff1602179055505b81608001518260a00151036117e1576000826101200190151590811515815250505b81600185815481106117f6576117f56132bc565b5b90600052602060002090600c020160008201518160000160006101000a81548173ffffffffffffffffffffffffffffffffffffffff021916908373ffffffffffffffffffffffffffffffffffffffff16021790555060208201518160010160006101000a81548173ffffffffffffffffffffffffffffffffffffffff021916908373ffffffffffffffffffffffffffffffffffffffff16021790555060408201518160020190816118a79190613a44565b5060608201518160030160006101000a81548160ff0219169083600a8111156118d3576118d2612d2b565b5b02179055506080820151816004015560a0820151816005015560c08201518160060160006101000a81548161ffff021916908361ffff16021790555060e0820151816007015561010082015181600801556101208201518160090160006101000a81548160ff02191690831515021790555061014082015181600a015561016082015181600b0160006101000a81548160ff02191690831515021790555090505034816000018181516119869190613e4c565b9150818152505042816020018181525050806003600086815260200190815260200160002060003373ffffffffffffffffffffffffffffffffffffffff1673ffffffffffffffffffffffffffffffffffffffff16815260200190815260200160002060008201518160000155602082015181600101559050507fc72924b9ed8e85c36a7485e8854a1cc92173309a80a6b66d48e7c98c357d5be8338534604051611a3293929190613f12565b60405180910390a150505050565b8160008110158015611a56575060018054905081105b611a95576040517f08c379a0000000000000000000000000000000000000000000000000000000008152600401611a8c90613273565b60405180910390fd5b823373ffffffffffffffffffffffffffffffffffffffff1660018281548110611ac157611ac06132bc565b5b90600052602060002090600c020160000160009054906101000a900473ffffffffffffffffffffffffffffffffffffffff1673ffffffffffffffffffffffffffffffffffffffff161480611b8557503373ffffffffffffffffffffffffffffffffffffffff1660018281548110611b3b57611b3a6132bc565b5b90600052602060002090600c020160010160009054906101000a900473ffffffffffffffffffffffffffffffffffffffff1673ffffffffffffffffffffffffffffffffffffffff16145b611bc4576040517f08c379a0000000000000000000000000000000000000000000000000000000008152600401611bbb9061335d565b60405180910390fd5b838360008110158015611bfc575060018281548110611be657611be56132bc565b5b90600052602060002090600c0201600501548111155b8015611c5d575060018281548110611c1757611c166132bc565b5b90600052602060002090600c0201600a015460018381548110611c3d57611c3c6132bc565b5b90600052602060002090600c020160050154611c599190613cee565b8111155b611c9c576040517f08c379a0000000000000000000000000000000000000000000000000000000008152600401611c9390613f95565b60405180910390fd5b8460018781548110611cb157611cb06132bc565b5b90600052602060002090600c0201600a018190555060018681548110611cda57611cd96132bc565b5b90600052602060002090600c020160010160009054906101000a900473ffffffffffffffffffffffffffffffffffffffff1673ffffffffffffffffffffffffffffffffffffffff166108fc869081150290604051600060405180830381858888f19350505050158015611d51573d6000803e3d6000fd5b507f57c3741cd2dd99a95eb8dd0bdca1e866d026ac34e5afb1ec5caabdad1d6e490c863387604051611d8593929190613fb5565b60405180910390a1505050505050565b8160008110158015611dab575060018054905081105b611dea576040517f08c379a0000000000000000000000000000000000000000000000000000000008152600401611de190613273565b60405180910390fd5b828260008110158015611e22575060018281548110611e0c57611e0b6132bc565b5b90600052602060002090600c0201600501548111155b8015611e83575060018281548110611e3d57611e3c6132bc565b5b90600052602060002090600c0201600a015460018381548110611e6357611e626132bc565b5b90600052602060002090600c020160050154611e7f9190613cee565b8111155b611ec2576040517f08c379a0000000000000000000000000000000000000000000000000000000008152600401611eb990613f95565b60405180910390fd5b836003600087815260200190815260200160002060003373ffffffffffffffffffffffffffffffffffffffff1673ffffffffffffffffffffffffffffffffffffffff168152602001908152602001600020600001541015611f58576040517f08c379a0000000000000000000000000000000000000000000000000000000008152600401611f4f9061405e565b60405180910390fd5b3373ffffffffffffffffffffffffffffffffffffffff166108fc859081150290604051600060405180830381858888f19350505050158015611f9e573d6000803e3d6000fd5b506003600086815260200190815260200160002060003373ffffffffffffffffffffffffffffffffffffffff1673ffffffffffffffffffffffffffffffffffffffff16815260200190815260200160002060000154840361203657600180868154811061200e5761200d6132bc565b5b90600052602060002090600c0201600701600082825461202e9190613cee565b925050819055505b836003600087815260200190815260200160002060003373ffffffffffffffffffffffffffffffffffffffff1673ffffffffffffffffffffffffffffffffffffffff16815260200190815260200160002060000160008282546120999190613cee565b9250508190555083600186815481106120b5576120b46132bc565b5b90600052602060002090600c020160050160008282546120d59190613cee565b925050819055507f2f3369a67f4244c1415396485c223848fd445eb40108b71bbf3072d3254d066485338660405161210f93929190613fb5565b60405180910390a15050505050565b8460008110158015612134575060018054905081105b612173576040517f08c379a000000000000000000000000000000000000000000000000000000000815260040161216a90613273565b60405180910390fd5b853373ffffffffffffffffffffffffffffffffffffffff166001828154811061219f5761219e6132bc565b5b90600052602060002090600c020160000160009054906101000a900473ffffffffffffffffffffffffffffffffffffffff1673ffffffffffffffffffffffffffffffffffffffff16148061226357503373ffffffffffffffffffffffffffffffffffffffff1660018281548110612219576122186132bc565b5b90600052602060002090600c020160010160009054906101000a900473ffffffffffffffffffffffffffffffffffffffff1673ffffffffffffffffffffffffffffffffffffffff16145b6122a2576040517f08c379a00000000000000000000000000000000000000000000000000000000081526004016122999061335d565b60405180910390fd5b6000600188815481106122b8576122b76132bc565b5b90600052602060002090600c0201604051806101800160405290816000820160009054906101000a900473ffffffffffffffffffffffffffffffffffffffff1673ffffffffffffffffffffffffffffffffffffffff1673ffffffffffffffffffffffffffffffffffffffff1681526020016001820160009054906101000a900473ffffffffffffffffffffffffffffffffffffffff1673ffffffffffffffffffffffffffffffffffffffff1673ffffffffffffffffffffffffffffffffffffffff16815260200160028201805461238e906135d9565b80601f01602080910402602001604051908101604052809291908181526020018280546123ba906135d9565b80156124075780601f106123dc57610100808354040283529160200191612407565b820191906000526020600020905b8154815290600101906020018083116123ea57829003601f168201915b505050505081526020016003820160009054906101000a900460ff16600a81111561243557612434612d2b565b5b600a81111561244757612446612d2b565b5b815260200160048201548152602001600582015481526020016006820160009054906101000a900461ffff1661ffff1661ffff16815260200160078201548152602001600882015481526020016009820160009054906101000a900460ff16151515158152602001600a8201548152602001600b820160009054906101000a900460ff16151515158152505090508060a0015187101561251c576040517f08c379a0000000000000000000000000000000000000000000000000000000008152600401612513906140f0565b60405180910390fd5b8060c0015161ffff168461ffff16101561259a5762015180848260c001516125449190614110565b61ffff166125529190613e0f565b62ffffff16421015612599576040517f08c379a0000000000000000000000000000000000000000000000000000000008152600401612590906141b8565b60405180910390fd5b5b8060c0015161ffff168461ffff16146125c257838160c0019061ffff16908161ffff16815250505b868160800181815250508060a00151871480156125e157508061012001515b156125fd5760008161012001901515908115158152505061261b565b80610120015161261a576001816101200190151590811515815250505b5b858160400181905250848160600190600a81111561263c5761263b612d2b565b5b9081600a8111156126505761264f612d2b565b5b815250508060018981548110612669576126686132bc565b5b90600052602060002090600c020160008201518160000160006101000a81548173ffffffffffffffffffffffffffffffffffffffff021916908373ffffffffffffffffffffffffffffffffffffffff16021790555060208201518160010160006101000a81548173ffffffffffffffffffffffffffffffffffffffff021916908373ffffffffffffffffffffffffffffffffffffffff160217905550604082015181600201908161271a9190613a44565b5060608201518160030160006101000a81548160ff0219169083600a81111561274657612745612d2b565b5b02179055506080820151816004015560a0820151816005015560c08201518160060160006101000a81548161ffff021916908361ffff16021790555060e0820151816007015561010082015181600801556101208201518160090160006101000a81548160ff02191690831515021790555061014082015181600a015561016082015181600b0160006101000a81548160ff0219169083151502179055509050507fea47fa186f8fb7522aeaa7c77aa8e55d782328a25bd5c2029c0187c5e16fbed1888888888860405161281e9594939291906141d8565b60405180910390a15050505050505050565b6128386128b3565b600073ffffffffffffffffffffffffffffffffffffffff168173ffffffffffffffffffffffffffffffffffffffff16036128a7576040517f08c379a000000000000000000000000000000000000000000000000000000000815260040161289e906142a4565b60405180910390fd5b6128b081612931565b50565b6128bb612a18565b73ffffffffffffffffffffffffffffffffffffffff166128d9610d95565b73ffffffffffffffffffffffffffffffffffffffff161461292f576040517f08c379a000000000000000000000000000000000000000000000000000000000815260040161292690614310565b60405180910390fd5b565b60008060009054906101000a900473ffffffffffffffffffffffffffffffffffffffff169050816000806101000a81548173ffffffffffffffffffffffffffffffffffffffff021916908373ffffffffffffffffffffffffffffffffffffffff1602179055508173ffffffffffffffffffffffffffffffffffffffff168173ffffffffffffffffffffffffffffffffffffffff167f8be0079c531659141344cd1fd0a4f28419497f9722a3daafe3b4186f6b6457e060405160405180910390a35050565b6000808273ffffffffffffffffffffffffffffffffffffffff163b119050919050565b600033905090565b604051806101800160405280600073ffffffffffffffffffffffffffffffffffffffff168152602001600073ffffffffffffffffffffffffffffffffffffffff168152602001606081526020016000600a811115612a8157612a80612d2b565b5b81526020016000815260200160008152602001600061ffff1681526020016000815260200160008152602001600015158152602001600081526020016000151581525090565b6000604051905090565b600080fd5b600080fd5b6000819050919050565b612aee81612adb565b8114612af957600080fd5b50565b600081359050612b0b81612ae5565b92915050565b60008115159050919050565b612b2681612b11565b8114612b3157600080fd5b50565b600081359050612b4381612b1d565b92915050565b60008060408385031215612b6057612b5f612ad1565b5b6000612b6e85828601612afc565b9250506020612b7f85828601612b34565b9150509250929050565b600060208284031215612b9f57612b9e612ad1565b5b6000612bad84828501612afc565b91505092915050565b600073ffffffffffffffffffffffffffffffffffffffff82169050919050565b6000612be182612bb6565b9050919050565b612bf181612bd6565b8114612bfc57600080fd5b50565b600081359050612c0e81612be8565b92915050565b60008060408385031215612c2b57612c2a612ad1565b5b6000612c3985828601612afc565b9250506020612c4a85828601612bff565b9150509250929050565b612c5d81612adb565b82525050565b6000604082019050612c786000830185612c54565b612c856020830184612c54565b9392505050565b612c9581612bd6565b82525050565b600081519050919050565b600082825260208201905092915050565b60005b83811015612cd5578082015181840152602081019050612cba565b60008484015250505050565b6000601f19601f8301169050919050565b6000612cfd82612c9b565b612d078185612ca6565b9350612d17818560208601612cb7565b612d2081612ce1565b840191505092915050565b7f4e487b7100000000000000000000000000000000000000000000000000000000600052602160045260246000fd5b600b8110612d6b57612d6a612d2b565b5b50565b6000819050612d7c82612d5a565b919050565b6000612d8c82612d6e565b9050919050565b612d9c81612d81565b82525050565b600061ffff82169050919050565b612db981612da2565b82525050565b612dc881612b11565b82525050565b600061018082019050612de4600083018f612c8c565b612df1602083018e612c8c565b8181036040830152612e03818d612cf2565b9050612e12606083018c612d93565b612e1f608083018b612c54565b612e2c60a083018a612c54565b612e3960c0830189612db0565b612e4660e0830188612c54565b612e54610100830187612c54565b612e62610120830186612dbf565b612e70610140830185612c54565b612e7e610160830184612dbf565b9d9c50505050505050505050505050565b6000602082019050612ea46000830184612dbf565b92915050565b60008060408385031215612ec157612ec0612ad1565b5b6000612ecf85828601612afc565b9250506020612ee085828601612afc565b9150509250929050565b6000602082019050612eff6000830184612c8c565b92915050565b6000602082019050612f1a6000830184612c54565b92915050565b612f2981612da2565b8114612f3457600080fd5b50565b600081359050612f4681612f20565b92915050565b600080fd5b600080fd5b7f4e487b7100000000000000000000000000000000000000000000000000000000600052604160045260246000fd5b612f8e82612ce1565b810181811067ffffffffffffffff82111715612fad57612fac612f56565b5b80604052505050565b6000612fc0612ac7565b9050612fcc8282612f85565b919050565b600067ffffffffffffffff821115612fec57612feb612f56565b5b612ff582612ce1565b9050602081019050919050565b82818337600083830152505050565b600061302461301f84612fd1565b612fb6565b9050828152602081018484840111156130405761303f612f51565b5b61304b848285613002565b509392505050565b600082601f83011261306857613067612f4c565b5b8135613078848260208601613011565b91505092915050565b600b811061308e57600080fd5b50565b6000813590506130a081613081565b92915050565b600080600080600060a086880312156130c2576130c1612ad1565b5b60006130d088828901612bff565b95505060206130e188828901612afc565b94505060406130f288828901612f37565b935050606086013567ffffffffffffffff81111561311357613112612ad6565b5b61311f88828901613053565b925050608061313088828901613091565b9150509295509295909350565b600080600080600060a0868803121561315957613158612ad1565b5b600061316788828901612afc565b955050602061317888828901612afc565b945050604086013567ffffffffffffffff81111561319957613198612ad6565b5b6131a588828901613053565b93505060606131b688828901613091565b92505060806131c788828901612f37565b9150509295509295909350565b6000602082840312156131ea576131e9612ad1565b5b60006131f884828501612bff565b91505092915050565b7f4f6f70732120546869732066756e6472616973657220646f6573206e6f74206560008201527f7869737400000000000000000000000000000000000000000000000000000000602082015250565b600061325d602483612ca6565b915061326882613201565b604082019050919050565b6000602082019050818103600083015261328c81613250565b9050919050565b60006040820190506132a86000830185612c54565b6132b56020830184612dbf565b9392505050565b7f4e487b7100000000000000000000000000000000000000000000000000000000600052603260045260246000fd5b7f596f7520646f6e277420686176652073756666696369656e74207065726d697360008201527f73696f6e73000000000000000000000000000000000000000000000000000000602082015250565b6000613347602583612ca6565b9150613352826132eb565b604082019050919050565b600060208201905081810360008301526133768161333a565b9050919050565b7f446f6e6174696f6e7320616c72656164792072657475726e6564000000000000600082015250565b60006133b3601a83612ca6565b91506133be8261337d565b602082019050919050565b600060208201905081810360008301526133e2816133a6565b9050919050565b7f50617274206f6620646f6e6174696f6e2068617320616c72656164792062656560008201527f6e20636c61696d65642e20596f752063616e2774207472616e7366657220667560208201527f6e64730000000000000000000000000000000000000000000000000000000000604082015250565b600061346b604383612ca6565b9150613476826133e9565b606082019050919050565b6000602082019050818103600083015261349a8161345e565b9050919050565b7f536f7272792120576520617265206e6f742061626c6520746f2066696e64206160008201527f6e7920646f6e6174696f6e730000000000000000000000000000000000000000602082015250565b60006134fd602c83612ca6565b9150613508826134a1565b604082019050919050565b6000602082019050818103600083015261352c816134f0565b9050919050565b7f4e487b7100000000000000000000000000000000000000000000000000000000600052601160045260246000fd5b600061356d82612adb565b91507fffffffffffffffffffffffffffffffffffffffffffffffffffffffffffffffff820361359f5761359e613533565b5b600182019050919050565b7f4e487b7100000000000000000000000000000000000000000000000000000000600052602260045260246000fd5b600060028204905060018216806135f157607f821691505b602082108103613604576136036135aa565b5b50919050565b7f596f752063616e277420726169736520666f72206120636f6e74726163740000600082015250565b6000613640601e83612ca6565b915061364b8261360a565b602082019050919050565b6000602082019050818103600083015261366f81613633565b9050919050565b7f4f6f707321204974277320616e20696e76616c69642061646472657373000000600082015250565b60006136ac601d83612ca6565b91506136b782613676565b602082019050919050565b600060208201905081810360008301526136db8161369f565b9050919050565b7f536f7272792120506c656173652061646420736f6d6520616d6f756e7420746f60008201527f2062652072616973656400000000000000000000000000000000000000000000602082015250565b600061373e602a83612ca6565b9150613749826136e2565b604082019050919050565b6000602082019050818103600083015261376d81613731565b9050919050565b7f476976652075732061746c6561737420312064617920746f207261697365206660008201527f756e647300000000000000000000000000000000000000000000000000000000602082015250565b60006137d0602483612ca6565b91506137db82613774565b604082019050919050565b600060208201905081810360008301526137ff816137c3565b9050919050565b7f536f7272792c20796f7520686176652073656c65637465642077726f6e67206360008201527f617465676f727900000000000000000000000000000000000000000000000000602082015250565b6000613862602783612ca6565b915061386d82613806565b604082019050919050565b6000602082019050818103600083015261389181613855565b9050919050565b60008190508160005260206000209050919050565b60006020601f8301049050919050565b600082821b905092915050565b6000600883026138fa7fffffffffffffffffffffffffffffffffffffffffffffffffffffffffffffffff826138bd565b61390486836138bd565b95508019841693508086168417925050509392505050565b6000819050919050565b600061394161393c61393784612adb565b61391c565b612adb565b9050919050565b6000819050919050565b61395b83613926565b61396f61396782613948565b8484546138ca565b825550505050565b600090565b613984613977565b61398f818484613952565b505050565b5b818110156139b3576139a860008261397c565b600181019050613995565b5050565b601f8211156139f8576139c981613898565b6139d2846138ad565b810160208510156139e1578190505b6139f56139ed856138ad565b830182613994565b50505b505050565b600082821c905092915050565b6000613a1b600019846008026139fd565b1980831691505092915050565b6000613a348383613a0a565b9150826002028217905092915050565b613a4d82612c9b565b67ffffffffffffffff811115613a6657613a65612f56565b5b613a7082546135d9565b613a7b8282856139b7565b600060209050601f831160018114613aae5760008415613a9c578287015190505b613aa68582613a28565b865550613b0e565b601f198416613abc86613898565b60005b82811015613ae457848901518255600182019150602085019450602081019050613abf565b86831015613b015784890151613afd601f891682613a0a565b8355505b6001600288020188555050505b505050505050565b600060c082019050613b2b6000830189612c8c565b613b386020830188612c8c565b613b456040830187612c54565b613b526060830186612db0565b8181036080830152613b648185612cf2565b9050613b7360a0830184612d93565b979650505050505050565b7f536f7272792120546869732066756e6472616973657220686173206265656e2060008201527f626c61636b6c69737465642e2049742063616e206e6f206c6f6e67657220726160208201527f6973652066756e64730000000000000000000000000000000000000000000000604082015250565b6000613c00604983612ca6565b9150613c0b82613b7e565b606082019050919050565b60006020820190508181036000830152613c2f81613bf3565b9050919050565b7f456974686572207468652066756e64726169736572206973206e6f206c6f6e6760008201527f657220616363657074696e6720646f6e6174696f6e73206f722048652068617360208201527f2072616973656420746865206e656564656420616d6f756e7400000000000000604082015250565b6000613cb8605983612ca6565b9150613cc382613c36565b606082019050919050565b60006020820190508181036000830152613ce781613cab565b9050919050565b6000613cf982612adb565b9150613d0483612adb565b9250828203905081811115613d1c57613d1b613533565b5b92915050565b7f5468616e6b20596f7520666f7220796f75722068656c7020627574207765206360008201527f616e2774206163636570742066756e6473206173207468652066756e6472616960208201527f73657220646f65736e2774206e6565642074686174206d7563682066756e647360408201527f2e00000000000000000000000000000000000000000000000000000000000000606082015250565b6000613dca606183612ca6565b9150613dd582613d22565b608082019050919050565b60006020820190508181036000830152613df981613dbd565b9050919050565b600062ffffff82169050919050565b6000613e1a82613e00565b9150613e2583613e00565b9250828202613e3381613e00565b9150808214613e4557613e44613533565b5b5092915050565b6000613e5782612adb565b9150613e6283612adb565b9250828201905080821115613e7a57613e79613533565b5b92915050565b7f536f72727921205468652074696d65706572696f6420746f207261697365206660008201527f756e647320686173207061737365640000000000000000000000000000000000602082015250565b6000613edc602f83612ca6565b9150613ee782613e80565b604082019050919050565b60006020820190508181036000830152613f0b81613ecf565b9050919050565b6000606082019050613f276000830186612c8c565b613f346020830185612c54565b613f416040830184612c54565b949350505050565b7f536f7272792120496e73756666696369656e742062616c616e63650000000000600082015250565b6000613f7f601b83612ca6565b9150613f8a82613f49565b602082019050919050565b60006020820190508181036000830152613fae81613f72565b9050919050565b6000606082019050613fca6000830186612c54565b613fd76020830185612c8c565b613fe46040830184612c54565b949350505050565b7f536f7272792120596f757220646f6e6174656420616d6f7574206973206c657360008201527f73207468616e20796f7572207769746864726177616c20616d6f756e74000000602082015250565b6000614048603d83612ca6565b915061405382613fec565b604082019050919050565b600060208201905081810360008301526140778161403b565b9050919050565b7f546865206e65772072616973656420616d6f756e74206973206c65737320746860008201527f616e207468652063757272656e7420616d6f756e742072616973656400000000602082015250565b60006140da603c83612ca6565b91506140e58261407e565b604082019050919050565b60006020820190508181036000830152614109816140cd565b9050919050565b600061411b82612da2565b915061412683612da2565b9250828203905061ffff8111156141405761413f613533565b5b92915050565b7f506c656173652067697665207573206d6f72652074696d6520746f207261697360008201527f65207468652066756e6473000000000000000000000000000000000000000000602082015250565b60006141a2602b83612ca6565b91506141ad82614146565b604082019050919050565b600060208201905081810360008301526141d181614195565b9050919050565b600060a0820190506141ed6000830188612c54565b6141fa6020830187612c54565b818103604083015261420c8186612cf2565b905061421b6060830185612d93565b6142286080830184612db0565b9695505050505050565b7f4f776e61626c653a206e6577206f776e657220697320746865207a65726f206160008201527f6464726573730000000000000000000000000000000000000000000000000000602082015250565b600061428e602683612ca6565b915061429982614232565b604082019050919050565b600060208201905081810360008301526142bd81614281565b9050919050565b7f4f776e61626c653a2063616c6c6572206973206e6f7420746865206f776e6572600082015250565b60006142fa602083612ca6565b9150614305826142c4565b602082019050919050565b60006020820190508181036000830152614329816142ed565b905091905056fea2646970667358221220af8ef7bc397325544492644e4da8f261274e28bc1b6052ea21c2a3f759f3843e64736f6c63430008120033",
  "linkReferences": {},
  "deployedLinkReferences": {}
}